{
  "_format": "hh-sol-artifact-1",
  "contractName": "Bank",
  "sourceName": "contracts/Bank.sol",
  "abi": [
    {
      "inputs": [],
      "stateMutability": "nonpayable",
      "type": "constructor"
    },
    {
      "anonymous": false,
      "inputs": [
        {
          "indexed": false,
          "internalType": "address",
          "name": "from",
          "type": "address"
        },
        {
          "indexed": false,
          "internalType": "address",
          "name": "to",
          "type": "address"
        },
        {
          "indexed": false,
          "internalType": "uint256",
          "name": "transferAmount",
          "type": "uint256"
        }
      ],
      "name": "Transfer",
      "type": "event"
    },
    {
      "inputs": [],
      "name": "bankName",
      "outputs": [
        {
          "internalType": "string",
          "name": "",
          "type": "string"
        }
      ],
      "stateMutability": "view",
      "type": "function"
    },
    {
      "inputs": [],
      "name": "bankOwner",
      "outputs": [
        {
          "internalType": "address",
          "name": "",
          "type": "address"
        }
      ],
      "stateMutability": "view",
      "type": "function"
    },
    {
      "inputs": [
        {
          "internalType": "address",
          "name": "",
          "type": "address"
        }
      ],
      "name": "customerBalance",
      "outputs": [
        {
          "internalType": "uint256",
          "name": "",
          "type": "uint256"
        }
      ],
      "stateMutability": "view",
      "type": "function"
    },
    {
      "inputs": [],
      "name": "depositMoney",
      "outputs": [],
      "stateMutability": "payable",
      "type": "function"
    },
    {
      "inputs": [],
      "name": "getBankBalance",
      "outputs": [
        {
          "internalType": "uint256",
          "name": "",
          "type": "uint256"
        }
      ],
      "stateMutability": "view",
      "type": "function"
    },
    {
      "inputs": [],
      "name": "getCustomerBalance",
      "outputs": [
        {
          "internalType": "uint256",
          "name": "",
          "type": "uint256"
        }
      ],
      "stateMutability": "view",
      "type": "function"
    },
    {
      "inputs": [
        {
          "internalType": "string",
          "name": "_name",
          "type": "string"
        }
      ],
      "name": "setBankName",
      "outputs": [],
      "stateMutability": "nonpayable",
      "type": "function"
    },
    {
      "inputs": [
        {
          "internalType": "address payable",
          "name": "_to",
          "type": "address"
        },
        {
          "internalType": "uint256",
          "name": "transferAmount",
          "type": "uint256"
        }
      ],
      "name": "transferMoney",
      "outputs": [
        {
          "internalType": "bool",
          "name": "",
          "type": "bool"
        }
      ],
      "stateMutability": "payable",
      "type": "function"
    },
    {
      "inputs": [
        {
          "internalType": "address payable",
          "name": "_to",
          "type": "address"
        },
        {
          "internalType": "uint256",
          "name": "_total",
          "type": "uint256"
        }
      ],
      "name": "withdrawMoney",
      "outputs": [],
      "stateMutability": "nonpayable",
      "type": "function"
    }
  ],
  "bytecode": "0x608060405234801561001057600080fd5b50336000806101000a81548173ffffffffffffffffffffffffffffffffffffffff021916908373ffffffffffffffffffffffffffffffffffffffff1602179055506111f0806100606000396000f3fe6080604052600436106100865760003560e01c80637b83b50b116100595780637b83b50b14610126578063a853409a14610151578063e147aaa71461017c578063f274c897146101a7578063fee666ad146101d057610086565b806316c05aa21461008b57806327d358011461009557806337ebe47b146100c057806370142690146100fd575b600080fd5b610093610200565b005b3480156100a157600080fd5b506100aa61029c565b6040516100b79190610c0d565b60405180910390f35b3480156100cc57600080fd5b506100e760048036038101906100e2919061097b565b61032a565b6040516100f49190610cef565b60405180910390f35b34801561010957600080fd5b50610124600480360381019061011f91906109e0565b610342565b005b34801561013257600080fd5b5061013b6103ea565b6040516101489190610cef565b60405180910390f35b34801561015d57600080fd5b50610166610481565b6040516101739190610cef565b60405180910390f35b34801561018857600080fd5b506101916104c8565b60405161019e9190610ba0565b60405180910390f35b3480156101b357600080fd5b506101ce60048036038101906101c991906109a4565b6104ec565b005b6101ea60048036038101906101e591906109a4565b61060f565b6040516101f79190610bf2565b60405180910390f35b6000341415610244576040517f08c379a000000000000000000000000000000000000000000000000000000000815260040161023b90610c6f565b60405180910390fd5b34600260003373ffffffffffffffffffffffffffffffffffffffff1673ffffffffffffffffffffffffffffffffffffffff16815260200190815260200160002060008282546102939190610d87565b92505081905550565b600180546102a990610ee3565b80601f01602080910402602001604051908101604052809291908181526020018280546102d590610ee3565b80156103225780601f106102f757610100808354040283529160200191610322565b820191906000526020600020905b81548152906001019060200180831161030557829003601f168201915b505050505081565b60026020528060005260406000206000915090505481565b60008054906101000a900473ffffffffffffffffffffffffffffffffffffffff1673ffffffffffffffffffffffffffffffffffffffff163373ffffffffffffffffffffffffffffffffffffffff16146103d0576040517f08c379a00000000000000000000000000000000000000000000000000000000081526004016103c790610caf565b60405180910390fd5b80600190805190602001906103e6929190610831565b5050565b60008060009054906101000a900473ffffffffffffffffffffffffffffffffffffffff1673ffffffffffffffffffffffffffffffffffffffff163373ffffffffffffffffffffffffffffffffffffffff161461047b576040517f08c379a000000000000000000000000000000000000000000000000000000000815260040161047290610ccf565b60405180910390fd5b47905090565b6000600260003373ffffffffffffffffffffffffffffffffffffffff1673ffffffffffffffffffffffffffffffffffffffff16815260200190815260200160002054905090565b60008054906101000a900473ffffffffffffffffffffffffffffffffffffffff1681565b600260003373ffffffffffffffffffffffffffffffffffffffff1673ffffffffffffffffffffffffffffffffffffffff1681526020019081526020016000205481111561056e576040517f08c379a000000000000000000000000000000000000000000000000000000000815260040161056590610c4f565b60405180910390fd5b80600260003373ffffffffffffffffffffffffffffffffffffffff1673ffffffffffffffffffffffffffffffffffffffff16815260200190815260200160002060008282546105bd9190610ddd565b925050819055508173ffffffffffffffffffffffffffffffffffffffff166108fc829081150290604051600060405180830381858888f1935050505015801561060a573d6000803e3d6000fd5b505050565b600081600260003373ffffffffffffffffffffffffffffffffffffffff1673ffffffffffffffffffffffffffffffffffffffff168152602001908152602001600020541015610693576040517f08c379a000000000000000000000000000000000000000000000000000000000815260040161068a90610c8f565b60405180910390fd5b81600260003373ffffffffffffffffffffffffffffffffffffffff1673ffffffffffffffffffffffffffffffffffffffff16815260200190815260200160002060008282546106e29190610ddd565b9250508190555081600260008573ffffffffffffffffffffffffffffffffffffffff1673ffffffffffffffffffffffffffffffffffffffff16815260200190815260200160002060008282546107389190610d87565b9250508190555060008373ffffffffffffffffffffffffffffffffffffffff168360405161076590610b8b565b60006040518083038185875af1925050503d80600081146107a2576040519150601f19603f3d011682016040523d82523d6000602084013e6107a7565b606091505b50509050806107eb576040517f08c379a00000000000000000000000000000000000000000000000000000000081526004016107e290610c2f565b60405180910390fd5b7fddf252ad1be2c89b69c2b068fc378daa952ba7f163c4a11628f55a4df523b3ef33858560405161081e93929190610bbb565b60405180910390a1600191505092915050565b82805461083d90610ee3565b90600052602060002090601f01602090048101928261085f57600085556108a6565b82601f1061087857805160ff19168380011785556108a6565b828001600101855582156108a6579182015b828111156108a557825182559160200191906001019061088a565b5b5090506108b391906108b7565b5090565b5b808211156108d05760008160009055506001016108b8565b5090565b60006108e76108e284610d2f565b610d0a565b9050828152602081018484840111156108ff57600080fd5b61090a848285610ea1565b509392505050565b60008135905061092181611175565b92915050565b6000813590506109368161118c565b92915050565b600082601f83011261094d57600080fd5b813561095d8482602086016108d4565b91505092915050565b600081359050610975816111a3565b92915050565b60006020828403121561098d57600080fd5b600061099b84828501610912565b91505092915050565b600080604083850312156109b757600080fd5b60006109c585828601610927565b92505060206109d685828601610966565b9150509250929050565b6000602082840312156109f257600080fd5b600082013567ffffffffffffffff811115610a0c57600080fd5b610a188482850161093c565b91505092915050565b610a2a81610e6b565b82525050565b610a3981610e11565b82525050565b610a4881610e35565b82525050565b6000610a5982610d60565b610a638185610d76565b9350610a73818560208601610eb0565b610a7c81610fd3565b840191505092915050565b6000610a94600b83610d76565b9150610a9f82610fe4565b602082019050919050565b6000610ab7602583610d76565b9150610ac28261100d565b604082019050919050565b6000610ada602983610d76565b9150610ae58261105c565b604082019050919050565b6000610afd600083610d6b565b9150610b08826110ab565b600082019050919050565b6000610b20601283610d76565b9150610b2b826110ae565b602082019050919050565b6000610b43603183610d76565b9150610b4e826110d7565b604082019050919050565b6000610b66603683610d76565b9150610b7182611126565b604082019050919050565b610b8581610e61565b82525050565b6000610b9682610af0565b9150819050919050565b6000602082019050610bb56000830184610a30565b92915050565b6000606082019050610bd06000830186610a30565b610bdd6020830185610a21565b610bea6040830184610b7c565b949350505050565b6000602082019050610c076000830184610a3f565b92915050565b60006020820190508181036000830152610c278184610a4e565b905092915050565b60006020820190508181036000830152610c4881610a87565b9050919050565b60006020820190508181036000830152610c6881610aaa565b9050919050565b60006020820190508181036000830152610c8881610acd565b9050919050565b60006020820190508181036000830152610ca881610b13565b9050919050565b60006020820190508181036000830152610cc881610b36565b9050919050565b60006020820190508181036000830152610ce881610b59565b9050919050565b6000602082019050610d046000830184610b7c565b92915050565b6000610d14610d25565b9050610d208282610f15565b919050565b6000604051905090565b600067ffffffffffffffff821115610d4a57610d49610fa4565b5b610d5382610fd3565b9050602081019050919050565b600081519050919050565b600081905092915050565b600082825260208201905092915050565b6000610d9282610e61565b9150610d9d83610e61565b9250827fffffffffffffffffffffffffffffffffffffffffffffffffffffffffffffffff03821115610dd257610dd1610f46565b5b828201905092915050565b6000610de882610e61565b9150610df383610e61565b925082821015610e0657610e05610f46565b5b828203905092915050565b6000610e1c82610e41565b9050919050565b6000610e2e82610e41565b9050919050565b60008115159050919050565b600073ffffffffffffffffffffffffffffffffffffffff82169050919050565b6000819050919050565b6000610e7682610e7d565b9050919050565b6000610e8882610e8f565b9050919050565b6000610e9a82610e41565b9050919050565b82818337600083830152505050565b60005b83811015610ece578082015181840152602081019050610eb3565b83811115610edd576000848401525b50505050565b60006002820490506001821680610efb57607f821691505b60208210811415610f0f57610f0e610f75565b5b50919050565b610f1e82610fd3565b810181811067ffffffffffffffff82111715610f3d57610f3c610fa4565b5b80604052505050565b7f4e487b7100000000000000000000000000000000000000000000000000000000600052601160045260246000fd5b7f4e487b7100000000000000000000000000000000000000000000000000000000600052602260045260246000fd5b7f4e487b7100000000000000000000000000000000000000000000000000000000600052604160045260246000fd5b6000601f19601f8301169050919050565b7f43616c6c206661696c6564000000000000000000000000000000000000000000600082015250565b7f596f75206861766520696e7375666669656e742066756e647320746f2077697460008201527f6864726177000000000000000000000000000000000000000000000000000000602082015250565b7f596f75206e65656420746f206465706f73697420736f6d6520616d6f756e742060008201527f6f66206d6f6e6579210000000000000000000000000000000000000000000000602082015250565b50565b7f696e73756666696369656e742066756e64730000000000000000000000000000600082015250565b7f596f75206d75737420626520746865206f776e657220746f207365742074686560008201527f206e616d65206f66207468652062616e6b000000000000000000000000000000602082015250565b7f596f75206d75737420626520746865206f776e6572206f66207468652062616e60008201527f6b20746f2073656520616c6c2062616c616e6365732e00000000000000000000602082015250565b61117e81610e11565b811461118957600080fd5b50565b61119581610e23565b81146111a057600080fd5b50565b6111ac81610e61565b81146111b757600080fd5b5056fea2646970667358221220c17f74054400091a771a86c8e43035ecb36a27bbaf231416d62d415f197ef17e64736f6c63430008040033",
  "linkReferences": {},
  "deployedLinkReferences": {}
}