{
  "_format": "hh-sol-artifact-1",
  "contractName": "Grandida",
  "sourceName": "contracts/Grandida.sol",
  "abi": [
    {
      "inputs": [],
      "stateMutability": "nonpayable",
      "type": "constructor"
    },
    {
      "inputs": [
        {
          "internalType": "address",
          "name": "",
          "type": "address"
        },
        {
          "internalType": "bytes32",
          "name": "",
          "type": "bytes32"
        }
      ],
      "name": "balances",
      "outputs": [
        {
          "internalType": "uint256",
          "name": "",
          "type": "uint256"
        }
      ],
      "stateMutability": "view",
      "type": "function"
    },
    {
      "inputs": [
        {
          "internalType": "uint256",
          "name": "amount",
          "type": "uint256"
        },
        {
          "internalType": "bytes32",
          "name": "symbol",
          "type": "bytes32"
        }
      ],
      "name": "depositTokens",
      "outputs": [],
      "stateMutability": "nonpayable",
      "type": "function"
    },
    {
      "inputs": [
        {
          "internalType": "bytes32",
          "name": "symbol",
          "type": "bytes32"
        }
      ],
      "name": "getTokenBalance",
      "outputs": [
        {
          "internalType": "uint256",
          "name": "",
          "type": "uint256"
        }
      ],
      "stateMutability": "view",
      "type": "function"
    },
    {
      "inputs": [],
      "name": "getWhitelistedSymbols",
      "outputs": [
        {
          "internalType": "bytes32[]",
          "name": "",
          "type": "bytes32[]"
        }
      ],
      "stateMutability": "view",
      "type": "function"
    },
    {
      "inputs": [
        {
          "internalType": "bytes32",
          "name": "symbol",
          "type": "bytes32"
        }
      ],
      "name": "getWhitelistedTokenAddress",
      "outputs": [
        {
          "internalType": "address",
          "name": "",
          "type": "address"
        }
      ],
      "stateMutability": "view",
      "type": "function"
    },
    {
      "inputs": [
        {
          "internalType": "bytes32",
          "name": "symbol",
          "type": "bytes32"
        },
        {
          "internalType": "address",
          "name": "tokenAddress",
          "type": "address"
        }
      ],
      "name": "whitelistToken",
      "outputs": [],
      "stateMutability": "nonpayable",
      "type": "function"
    },
    {
      "inputs": [
        {
          "internalType": "uint256",
          "name": "",
          "type": "uint256"
        }
      ],
      "name": "whitelistedSymbols",
      "outputs": [
        {
          "internalType": "bytes32",
          "name": "",
          "type": "bytes32"
        }
      ],
      "stateMutability": "view",
      "type": "function"
    },
    {
      "inputs": [
        {
          "internalType": "bytes32",
          "name": "",
          "type": "bytes32"
        }
      ],
      "name": "whitelistedTokens",
      "outputs": [
        {
          "internalType": "address",
          "name": "",
          "type": "address"
        }
      ],
      "stateMutability": "view",
      "type": "function"
    },
    {
      "inputs": [
        {
          "internalType": "uint256",
          "name": "amount",
          "type": "uint256"
        }
      ],
      "name": "withdrawEther",
      "outputs": [],
      "stateMutability": "nonpayable",
      "type": "function"
    },
    {
      "inputs": [
        {
          "internalType": "uint256",
          "name": "amount",
          "type": "uint256"
        },
        {
          "internalType": "bytes32",
          "name": "symbol",
          "type": "bytes32"
        }
      ],
      "name": "withdrawTokens",
      "outputs": [],
      "stateMutability": "nonpayable",
      "type": "function"
    },
    {
      "stateMutability": "payable",
      "type": "receive"
    }
  ],
  "bytecode": "0x608060405234801561001057600080fd5b50600080546001600160a01b03191633179055610887806100326000396000f3fe6080604052600436106100b55760003560e01c806388db6ac611610069578063aa3d9a151161004e578063aa3d9a151461021d578063d15b223e1461026b578063e88127881461028b57600080fd5b806388db6ac6146101c55780638f97994b146101fd57600080fd5b80633bed33ce1161009a5780633bed33ce146101635780634762b976146101835780634b1e4aa5146101a357600080fd5b8063069fdaae146100f65780631f14df691461011857600080fd5b366100f1573360009081526003602090815260408083206208ae8d60eb1b8452909152812080543492906100ea908490610708565b9091555050005b600080fd5b34801561010257600080fd5b5061011661011136600461073c565b6102c1565b005b34801561012457600080fd5b50610150610133366004610768565b600360209081526000928352604080842090915290825290205481565b6040519081526020015b60405180910390f35b34801561016f57600080fd5b5061011661017e366004610792565b610395565b34801561018f57600080fd5b5061015061019e366004610792565b610485565b3480156101af57600080fd5b506101b86104a6565b60405161015a91906107ab565b3480156101d157600080fd5b506101506101e0366004610792565b336000908152600360209081526040808320938352929052205490565b34801561020957600080fd5b506101166102183660046107ef565b6104fe565b34801561022957600080fd5b50610253610238366004610792565b6002602052600090815260409020546001600160a01b031681565b6040516001600160a01b03909116815260200161015a565b34801561027757600080fd5b506101166102863660046107ef565b610647565b34801561029757600080fd5b506102536102a6366004610792565b6000908152600260205260409020546001600160a01b031690565b6000546001600160a01b031633146103205760405162461bcd60e51b815260206004820152601c60248201527f546869732066756e6374696f6e206973206e6f74207075626c6963210000000060448201526064015b60405180910390fd5b600180548082019091557fb10e2d527612073b26eecdfd717e6a320cf44b4afac2b0732d9fcbe2b7fa0cf60182905560009182526002602052604090912080547fffffffffffffffffffffffff0000000000000000000000000000000000000000166001600160a01b03909216919091179055565b3360009081526003602090815260408083206208ae8d60eb1b84529091529020548111156104055760405162461bcd60e51b815260206004820152601260248201527f496e73756666696369656e742066756e647300000000000000000000000000006044820152606401610317565b3360009081526003602090815260408083206208ae8d60eb1b845290915281208054839290610435908490610811565b909155505060405133908290600081818185875af1925050503d806000811461047a576040519150601f19603f3d011682016040523d82523d6000602084013e61047f565b606091505b50505050565b6001818154811061049557600080fd5b600091825260209091200154905081565b606060018054806020026020016040519081016040528092919081815260200182805480156104f457602002820191906000526020600020905b8154815260200190600101908083116104e0575b5050505050905090565b3360009081526003602090815260408083208484529091529020548211156105685760405162461bcd60e51b815260206004820152601260248201527f496e73756666696369656e742066756e647300000000000000000000000000006044820152606401610317565b33600090815260036020908152604080832084845290915281208054849290610592908490610811565b9091555050600081815260026020526040908190205490517fa9059cbb000000000000000000000000000000000000000000000000000000008152336004820152602481018490526001600160a01b039091169063a9059cbb906044015b602060405180830381600087803b15801561060a57600080fd5b505af115801561061e573d6000803e3d6000fd5b505050506040513d601f19601f820116820180604052508101906106429190610828565b505050565b33600090815260036020908152604080832084845290915281208054849290610671908490610708565b9091555050600081815260026020526040908190205490517f23b872dd000000000000000000000000000000000000000000000000000000008152336004820152306024820152604481018490526001600160a01b03909116906323b872dd906064016105f0565b7f4e487b7100000000000000000000000000000000000000000000000000000000600052601160045260246000fd5b6000821982111561071b5761071b6106d9565b500190565b80356001600160a01b038116811461073757600080fd5b919050565b6000806040838503121561074f57600080fd5b8235915061075f60208401610720565b90509250929050565b6000806040838503121561077b57600080fd5b61078483610720565b946020939093013593505050565b6000602082840312156107a457600080fd5b5035919050565b6020808252825182820181905260009190848201906040850190845b818110156107e3578351835292840192918401916001016107c7565b50909695505050505050565b6000806040838503121561080257600080fd5b50508035926020909101359150565b600082821015610823576108236106d9565b500390565b60006020828403121561083a57600080fd5b8151801515811461084a57600080fd5b939250505056fea2646970667358221220b8dab30a945692b41ea8e23e849d32adccff38e933a6a072d0b79187c2a41e1964736f6c63430008090033",
  "linkReferences": {},
  "deployedLinkReferences": {}
}