{
  "_format": "hh-sol-artifact-1",
  "contractName": "Staking",
  "sourceName": "contracts/Staking.sol",
  "abi": [
    {
      "inputs": [],
      "stateMutability": "payable",
      "type": "constructor"
    },
    {
      "anonymous": false,
      "inputs": [
        {
          "indexed": true,
          "internalType": "address",
          "name": "from",
          "type": "address"
        },
        {
          "indexed": true,
          "internalType": "uint256",
          "name": "lockPeriod",
          "type": "uint256"
        },
        {
          "indexed": false,
          "internalType": "uint256",
          "name": "amount",
          "type": "uint256"
        }
      ],
      "name": "TokenStaked",
      "type": "event"
    },
    {
      "inputs": [
        {
          "internalType": "uint256",
          "name": "positionId",
          "type": "uint256"
        },
        {
          "internalType": "uint256",
          "name": "newUnlockDate",
          "type": "uint256"
        }
      ],
      "name": "changeUnlockDate",
      "outputs": [],
      "stateMutability": "nonpayable",
      "type": "function"
    },
    {
      "inputs": [
        {
          "internalType": "uint256",
          "name": "positionId",
          "type": "uint256"
        }
      ],
      "name": "closePosition",
      "outputs": [],
      "stateMutability": "nonpayable",
      "type": "function"
    },
    {
      "inputs": [],
      "name": "currentPositionId",
      "outputs": [
        {
          "internalType": "uint256",
          "name": "",
          "type": "uint256"
        }
      ],
      "stateMutability": "view",
      "type": "function"
    },
    {
      "inputs": [
        {
          "internalType": "uint256",
          "name": "numDays",
          "type": "uint256"
        }
      ],
      "name": "getInterestRate",
      "outputs": [
        {
          "internalType": "uint256",
          "name": "",
          "type": "uint256"
        }
      ],
      "stateMutability": "view",
      "type": "function"
    },
    {
      "inputs": [],
      "name": "getLockPeriods",
      "outputs": [
        {
          "internalType": "uint256[]",
          "name": "",
          "type": "uint256[]"
        }
      ],
      "stateMutability": "view",
      "type": "function"
    },
    {
      "inputs": [
        {
          "internalType": "uint256",
          "name": "positionId",
          "type": "uint256"
        }
      ],
      "name": "getPositionById",
      "outputs": [
        {
          "components": [
            {
              "internalType": "uint256",
              "name": "positionId",
              "type": "uint256"
            },
            {
              "internalType": "address",
              "name": "walletAddress",
              "type": "address"
            },
            {
              "internalType": "uint256",
              "name": "createdDate",
              "type": "uint256"
            },
            {
              "internalType": "uint256",
              "name": "unlockDate",
              "type": "uint256"
            },
            {
              "internalType": "uint256",
              "name": "percentInterest",
              "type": "uint256"
            },
            {
              "internalType": "uint256",
              "name": "weiStaked",
              "type": "uint256"
            },
            {
              "internalType": "uint256",
              "name": "weiInterest",
              "type": "uint256"
            },
            {
              "internalType": "bool",
              "name": "open",
              "type": "bool"
            }
          ],
          "internalType": "struct Staking.Position",
          "name": "",
          "type": "tuple"
        }
      ],
      "stateMutability": "view",
      "type": "function"
    },
    {
      "inputs": [
        {
          "internalType": "address",
          "name": "walletAddress",
          "type": "address"
        }
      ],
      "name": "getPositionIdsForAddress",
      "outputs": [
        {
          "internalType": "uint256[]",
          "name": "",
          "type": "uint256[]"
        }
      ],
      "stateMutability": "view",
      "type": "function"
    },
    {
      "inputs": [
        {
          "internalType": "uint256",
          "name": "",
          "type": "uint256"
        }
      ],
      "name": "lockPeriods",
      "outputs": [
        {
          "internalType": "uint256",
          "name": "",
          "type": "uint256"
        }
      ],
      "stateMutability": "view",
      "type": "function"
    },
    {
      "inputs": [
        {
          "internalType": "uint256",
          "name": "numDays",
          "type": "uint256"
        },
        {
          "internalType": "uint256",
          "name": "basisPoints",
          "type": "uint256"
        }
      ],
      "name": "modifyLockPeriods",
      "outputs": [],
      "stateMutability": "nonpayable",
      "type": "function"
    },
    {
      "inputs": [],
      "name": "owner",
      "outputs": [
        {
          "internalType": "address",
          "name": "",
          "type": "address"
        }
      ],
      "stateMutability": "view",
      "type": "function"
    },
    {
      "inputs": [
        {
          "internalType": "address",
          "name": "",
          "type": "address"
        },
        {
          "internalType": "uint256",
          "name": "",
          "type": "uint256"
        }
      ],
      "name": "positionIdsByAddress",
      "outputs": [
        {
          "internalType": "uint256",
          "name": "",
          "type": "uint256"
        }
      ],
      "stateMutability": "view",
      "type": "function"
    },
    {
      "inputs": [
        {
          "internalType": "uint256",
          "name": "",
          "type": "uint256"
        }
      ],
      "name": "positions",
      "outputs": [
        {
          "internalType": "uint256",
          "name": "positionId",
          "type": "uint256"
        },
        {
          "internalType": "address",
          "name": "walletAddress",
          "type": "address"
        },
        {
          "internalType": "uint256",
          "name": "createdDate",
          "type": "uint256"
        },
        {
          "internalType": "uint256",
          "name": "unlockDate",
          "type": "uint256"
        },
        {
          "internalType": "uint256",
          "name": "percentInterest",
          "type": "uint256"
        },
        {
          "internalType": "uint256",
          "name": "weiStaked",
          "type": "uint256"
        },
        {
          "internalType": "uint256",
          "name": "weiInterest",
          "type": "uint256"
        },
        {
          "internalType": "bool",
          "name": "open",
          "type": "bool"
        }
      ],
      "stateMutability": "view",
      "type": "function"
    },
    {
      "inputs": [
        {
          "internalType": "uint256",
          "name": "numDays",
          "type": "uint256"
        }
      ],
      "name": "stakeEther",
      "outputs": [],
      "stateMutability": "payable",
      "type": "function"
    },
    {
      "inputs": [
        {
          "internalType": "uint256",
          "name": "",
          "type": "uint256"
        }
      ],
      "name": "tiers",
      "outputs": [
        {
          "internalType": "uint256",
          "name": "",
          "type": "uint256"
        }
      ],
      "stateMutability": "view",
      "type": "function"
    }
  ],
  "bytecode": "0x6080604052600080546001600160a01b031916331781556009819055600c6020526102bc7f335c01f32f99d35cb64d8289b566f377b69a60a868ff865828ab37e34e93e1db556103e87fb6fee850c592782285e2afa4b9b9fe57677af9af6c836afb1b518cff893d6d36556104b07fad3157f10f74ed02bcd2d9655cab299a5e45cb5522de29fe16c40cc6a26d7c0f55600d80546001818101835592829052601e7fd7b6990105719101dabeb77144f2a3385c8033acd3af97e9423a695e81ad1eb59182015581548084018355605a90820155815492830190915560b4910155610c9a806100ee6000396000f3fe6080604052600436106100dd5760003560e01c80638da5cb5b1161007f578063b0f0475b11610059578063b0f0475b146102f1578063b838ec8614610311578063c7c9d0551461039d578063e4f90841146103bd57600080fd5b80638da5cb5b146101e757806399fbab881461021f578063a126d601146102cf57600080fd5b806340d98a44116100bb57806340d98a441461016557806341ee13be1461019257806345eae373146101a75780634c8f2a78146101c757600080fd5b8063039af9eb146100e25780630c196a74146101225780631131c8cd1461014f575b600080fd5b3480156100ee57600080fd5b5061010f6100fd366004610b0e565b600c6020526000908152604090205481565b6040519081526020015b60405180910390f35b34801561012e57600080fd5b5061010f61013d366004610b0e565b6000908152600c602052604090205490565b34801561015b57600080fd5b5061010f60095481565b34801561017157600080fd5b50610185610180366004610b43565b6103d0565b6040516101199190610b65565b34801561019e57600080fd5b5061018561043c565b3480156101b357600080fd5b5061010f6101c2366004610ba9565b610494565b3480156101d357600080fd5b5061010f6101e2366004610b0e565b6104c5565b3480156101f357600080fd5b50600054610207906001600160a01b031681565b6040516001600160a01b039091168152602001610119565b34801561022b57600080fd5b5061028a61023a366004610b0e565b600a602052600090815260409020805460018201546002830154600384015460048501546005860154600687015460079097015495966001600160a01b0390951695939492939192909160ff1688565b604080519889526001600160a01b039097166020890152958701949094526060860192909252608085015260a084015260c0830152151560e082015261010001610119565b3480156102db57600080fd5b506102ef6102ea366004610b0e565b6104e6565b005b3480156102fd57600080fd5b506102ef61030c366004610bd3565b6106d0565b34801561031d57600080fd5b5061033161032c366004610b0e565b610793565b6040516101199190600061010082019050825182526001600160a01b03602084015116602083015260408301516040830152606083015160608301526080830151608083015260a083015160a083015260c083015160c083015260e0830151151560e083015292915050565b3480156103a957600080fd5b506102ef6103b8366004610bd3565b610862565b6102ef6103cb366004610b0e565b6108f7565b6001600160a01b0381166000908152600b602090815260409182902080548351818402810184019094528084526060939283018282801561043057602002820191906000526020600020905b81548152602001906001019080831161041c575b50505050509050919050565b6060600d80548060200260200160405190810160405280929190818152602001828054801561048a57602002820191906000526020600020905b815481526020019060010190808311610476575b5050505050905090565b600b60205281600052604060002081815481106104b057600080fd5b90600052602060002001600091509150505481565b600d81815481106104d557600080fd5b600091825260209091200154905081565b6000818152600a60205260409020600101546001600160a01b0316331461057a5760405162461bcd60e51b815260206004820152602d60248201527f4f6e6c792074686520706f736974696f6e2063726561746f72206d6179206d6f60448201527f6469667920706f736974696f6e0000000000000000000000000000000000000060648201526084015b60405180910390fd5b6000818152600a602052604090206007015460ff1615156001146105e05760405162461bcd60e51b815260206004820152601160248201527f506f736974696f6e20697320636c6f73650000000000000000000000000000006044820152606401610571565b6000818152600a6020526040902060078101805460ff1916905560030154421115610677576000818152600a6020526040812060068101546005909101546106289190610c0b565b60405190915033908290600081818185875af1925050503d806000811461066b576040519150601f19603f3d011682016040523d82523d6000602084013e610670565b606091505b5050505050565b6000818152600a6020526040808220600501549051339281818185875af1925050503d80600081146106c5576040519150601f19603f3d011682016040523d82523d6000602084013e6106ca565b606091505b50505050565b6000546001600160a01b031633146107505760405162461bcd60e51b815260206004820152602560248201527f4f6e6c79206f776e6572206d6179206d6f64696679207374616b696e6720706560448201527f72696f64730000000000000000000000000000000000000000000000000000006064820152608401610571565b6000828152600c6020526040812091909155600d805460018101825591527fd7b6990105719101dabeb77144f2a3385c8033acd3af97e9423a695e81ad1eb50155565b6107e66040518061010001604052806000815260200160006001600160a01b0316815260200160008152602001600081526020016000815260200160008152602001600081526020016000151581525090565b506000908152600a60209081526040918290208251610100810184528154815260018201546001600160a01b0316928101929092526002810154928201929092526003820154606082015260048201546080820152600582015460a0820152600682015460c082015260079091015460ff16151560e082015290565b6000546001600160a01b031633146108e25760405162461bcd60e51b815260206004820152602260248201527f4f6e6c79206f776e6572206d6179206d6f6469667920756e6c6f636b2064617460448201527f65730000000000000000000000000000000000000000000000000000000000006064820152608401610571565b6000918252600a602052604090912060030155565b6000818152600c60205260409020546109525760405162461bcd60e51b815260206004820152601160248201527f4d617070696e67206e6f7420666f756e640000000000000000000000000000006044820152606401610571565b6040518061010001604052806009548152602001336001600160a01b03168152602001428152602001826201518061098a9190610c23565b6109949042610c0b565b8152602001600c60008481526020019081526020016000205481526020013481526020016109d6600c6000858152602001908152602001600020548434610aed565b815260016020918201819052600980546000908152600a84526040808220865181558686015181860180547fffffffffffffffffffffffff0000000000000000000000000000000000000000166001600160a01b03909216919091179055868201516002820155606087015160038201556080870151600482015560a0870151600582015560c0870151600682015560e0909601516007909601805460ff191696151596909617909555338152600b845293842081548154808501835591865293852001929092558154909290610aae908490610c0b565b9091555050604051348152819033907f6173e4d2d9dd52aae0ed37afed3adcf924a490639b759ca93d32dc43366c17d29060200160405180910390a350565b6000612710610afc8386610c23565b610b069190610c42565b949350505050565b600060208284031215610b2057600080fd5b5035919050565b80356001600160a01b0381168114610b3e57600080fd5b919050565b600060208284031215610b5557600080fd5b610b5e82610b27565b9392505050565b6020808252825182820181905260009190848201906040850190845b81811015610b9d57835183529284019291840191600101610b81565b50909695505050505050565b60008060408385031215610bbc57600080fd5b610bc583610b27565b946020939093013593505050565b60008060408385031215610be657600080fd5b50508035926020909101359150565b634e487b7160e01b600052601160045260246000fd5b60008219821115610c1e57610c1e610bf5565b500190565b6000816000190483118215151615610c3d57610c3d610bf5565b500290565b600082610c5f57634e487b7160e01b600052601260045260246000fd5b50049056fea2646970667358221220e3be5eb760e502025674f0ff208b0699a54d87b60ad74f6166c5d665c23bccab64736f6c63430008090033",
  "linkReferences": {},
  "deployedLinkReferences": {}
}