{
  "_format": "hh-sol-artifact-1",
  "contractName": "WealthMate",
  "sourceName": "contracts/WealthMate.sol",
  "abi": [
    {
      "inputs": [],
      "stateMutability": "nonpayable",
      "type": "constructor"
    },
    {
      "anonymous": false,
      "inputs": [
        {
          "indexed": true,
          "internalType": "address",
          "name": "customerAddress",
          "type": "address"
        },
        {
          "indexed": false,
          "internalType": "uint256",
          "name": "depositAmount",
          "type": "uint256"
        }
      ],
      "name": "Deposit",
      "type": "event"
    },
    {
      "anonymous": false,
      "inputs": [
        {
          "indexed": false,
          "internalType": "address",
          "name": "from",
          "type": "address"
        },
        {
          "indexed": false,
          "internalType": "address",
          "name": "to",
          "type": "address"
        },
        {
          "indexed": false,
          "internalType": "uint256",
          "name": "transferAmount",
          "type": "uint256"
        }
      ],
      "name": "Transfer",
      "type": "event"
    },
    {
      "anonymous": false,
      "inputs": [
        {
          "indexed": true,
          "internalType": "address",
          "name": "customerAddress",
          "type": "address"
        },
        {
          "indexed": false,
          "internalType": "uint256",
          "name": "withdrawAmount",
          "type": "uint256"
        },
        {
          "indexed": false,
          "internalType": "uint256",
          "name": "newBalance",
          "type": "uint256"
        }
      ],
      "name": "Withdraw",
      "type": "event"
    },
    {
      "stateMutability": "payable",
      "type": "fallback"
    },
    {
      "inputs": [
        {
          "internalType": "address",
          "name": "",
          "type": "address"
        }
      ],
      "name": "balances",
      "outputs": [
        {
          "internalType": "uint256",
          "name": "",
          "type": "uint256"
        }
      ],
      "stateMutability": "view",
      "type": "function"
    },
    {
      "inputs": [],
      "name": "depositToken",
      "outputs": [],
      "stateMutability": "payable",
      "type": "function"
    },
    {
      "inputs": [],
      "name": "getCustomerBalance",
      "outputs": [
        {
          "internalType": "uint256",
          "name": "",
          "type": "uint256"
        }
      ],
      "stateMutability": "view",
      "type": "function"
    },
    {
      "inputs": [],
      "name": "owner",
      "outputs": [
        {
          "internalType": "address",
          "name": "",
          "type": "address"
        }
      ],
      "stateMutability": "view",
      "type": "function"
    },
    {
      "inputs": [
        {
          "internalType": "address",
          "name": "to",
          "type": "address"
        },
        {
          "internalType": "uint256",
          "name": "transferAmount",
          "type": "uint256"
        }
      ],
      "name": "transferToken",
      "outputs": [
        {
          "internalType": "bool",
          "name": "",
          "type": "bool"
        }
      ],
      "stateMutability": "payable",
      "type": "function"
    },
    {
      "inputs": [
        {
          "internalType": "address payable",
          "name": "receiver",
          "type": "address"
        },
        {
          "internalType": "uint256",
          "name": "withdrawAmount",
          "type": "uint256"
        }
      ],
      "name": "withdrawToken",
      "outputs": [],
      "stateMutability": "nonpayable",
      "type": "function"
    },
    {
      "stateMutability": "payable",
      "type": "receive"
    }
  ],
  "bytecode": "0x608060405234801561001057600080fd5b50600080546001600160a01b03191633179055610609806100326000396000f3fe6080604052600436106100635760003560e01c80639e281a98116100405780639e281a9814610107578063a853409a14610127578063c89039c51461014957005b80631072cbea1461006c57806327e235e3146100945780638da5cb5b146100cf57005b3661006a57005b005b61007f61007a36600461052c565b610151565b60405190151581526020015b60405180910390f35b3480156100a057600080fd5b506100c16100af366004610558565b60016020526000908152604090205481565b60405190815260200161008b565b3480156100db57600080fd5b506000546100ef906001600160a01b031681565b6040516001600160a01b03909116815260200161008b565b34801561011357600080fd5b5061006a61012236600461052c565b61030b565b34801561013357600080fd5b50336000908152600160205260409020546100c1565b61006a610418565b336000908152600160205260408120548211156101b55760405162461bcd60e51b815260206004820152601260248201527f696e73756666696369656e742066756e6473000000000000000000000000000060448201526064015b60405180910390fd5b336000908152600160205260409020546101cf90836104f5565b336000908152600160205260408082209290925590516001600160a01b0385169084908381818185875af1925050503d806000811461022a576040519150601f19603f3d011682016040523d82523d6000602084013e61022f565b606091505b50509050806102805760405162461bcd60e51b815260206004820152600b60248201527f43616c6c206661696c656400000000000000000000000000000000000000000060448201526064016101ac565b6001600160a01b0384166000908152600160205260409020546102a39084610508565b6001600160a01b0385166000818152600160209081526040918290209390935580513381529283019190915281018490527fddf252ad1be2c89b69c2b068fc378daa952ba7f163c4a11628f55a4df523b3ef9060600160405180910390a15060019392505050565b3360009081526001602052604090205481111561036a5760405162461bcd60e51b815260206004820152601260248201527f696e73756666696369656e742066756e6473000000000000000000000000000060448201526064016101ac565b3360009081526001602052604090205461038490826104f5565b336000908152600160205260408082209290925590516001600160a01b0384169183156108fc02918491818181858888f193505050501580156103cb573d6000803e3d6000fd5b5033600081815260016020908152604091829020548251858152918201527ff279e6a1f5e320cca91135676d9cb6e44ca8a08c0b88342bcdb1144f6511b568910160405180910390a25050565b3461048b5760405162461bcd60e51b815260206004820152602660248201527f596f7520646f6e2774206861766520656e6f75676820746f6b656e20746f206460448201527f65706f736974000000000000000000000000000000000000000000000000000060648201526084016101ac565b336000908152600160205260409020546104a59034610508565b33600081815260016020526040908190209290925590517fe1fffcc4923d04b559f4d29a8bfc6cda04eb5b0d3c460751c2402c5c5cc9109c906104eb9034815260200190565b60405180910390a2565b600061050182846105a4565b9392505050565b600061050182846105bb565b6001600160a01b038116811461052957600080fd5b50565b6000806040838503121561053f57600080fd5b823561054a81610514565b946020939093013593505050565b60006020828403121561056a57600080fd5b813561050181610514565b7f4e487b7100000000000000000000000000000000000000000000000000000000600052601160045260246000fd5b6000828210156105b6576105b6610575565b500390565b600082198211156105ce576105ce610575565b50019056fea264697066735822122077f2bfa77274382fab8856c1152144a194c46cfb2290f35d782c81d1b998ed7364736f6c63430008090033",
  "linkReferences": {},
  "deployedLinkReferences": {}
}